{
  "contractName": "Lottery",
  "abi": [
    {
      "inputs": [],
      "stateMutability": "nonpayable",
      "type": "constructor"
    },
    {
      "inputs": [
        {
          "internalType": "uint256",
          "name": "",
          "type": "uint256"
        }
      ],
      "name": "lotteryHistory",
      "outputs": [
        {
          "internalType": "address payable",
          "name": "",
          "type": "address"
        }
      ],
      "stateMutability": "view",
      "type": "function",
      "constant": true
    },
    {
      "inputs": [],
      "name": "lotteryId",
      "outputs": [
        {
          "internalType": "uint256",
          "name": "",
          "type": "uint256"
        }
      ],
      "stateMutability": "view",
      "type": "function",
      "constant": true
    },
    {
      "inputs": [],
      "name": "owner",
      "outputs": [
        {
          "internalType": "address",
          "name": "",
          "type": "address"
        }
      ],
      "stateMutability": "view",
      "type": "function",
      "constant": true
    },
    {
      "inputs": [
        {
          "internalType": "uint256",
          "name": "",
          "type": "uint256"
        }
      ],
      "name": "players",
      "outputs": [
        {
          "internalType": "address payable",
          "name": "",
          "type": "address"
        }
      ],
      "stateMutability": "view",
      "type": "function",
      "constant": true
    },
    {
      "inputs": [
        {
          "internalType": "uint256",
          "name": "lottery",
          "type": "uint256"
        }
      ],
      "name": "getWinnerByLottery",
      "outputs": [
        {
          "internalType": "address payable",
          "name": "",
          "type": "address"
        }
      ],
      "stateMutability": "view",
      "type": "function",
      "constant": true
    },
    {
      "inputs": [],
      "name": "getBalance",
      "outputs": [
        {
          "internalType": "uint256",
          "name": "",
          "type": "uint256"
        }
      ],
      "stateMutability": "view",
      "type": "function",
      "constant": true
    },
    {
      "inputs": [],
      "name": "getPlayers",
      "outputs": [
        {
          "internalType": "address payable[]",
          "name": "",
          "type": "address[]"
        }
      ],
      "stateMutability": "view",
      "type": "function",
      "constant": true
    },
    {
      "inputs": [],
      "name": "enter",
      "outputs": [],
      "stateMutability": "payable",
      "type": "function",
      "payable": true
    },
    {
      "inputs": [],
      "name": "getRandomNumber",
      "outputs": [
        {
          "internalType": "uint256",
          "name": "",
          "type": "uint256"
        }
      ],
      "stateMutability": "view",
      "type": "function",
      "constant": true
    },
    {
      "inputs": [],
      "name": "getLotteryId",
      "outputs": [
        {
          "internalType": "uint256",
          "name": "",
          "type": "uint256"
        }
      ],
      "stateMutability": "view",
      "type": "function",
      "constant": true
    },
    {
      "inputs": [],
      "name": "pickWinner",
      "outputs": [],
      "stateMutability": "nonpayable",
      "type": "function"
    }
  ],
  "bytecode": "0x608060405234801561001057600080fd5b50336000806101000a81548173ffffffffffffffffffffffffffffffffffffffff021916908373ffffffffffffffffffffffffffffffffffffffff1602179055506001600281905550610b77806100686000396000f3fe60806040526004361061009c5760003560e01c80638da5cb5b116100645780638da5cb5b14610188578063900aafaf146101b3578063dbdff2c1146101de578063e580f47b14610209578063e97dcb6214610234578063f71d96cb1461023e5761009c565b806312065fe0146100a1578063281d098d146100cc5780635d495aea146101095780636d6fe230146101205780638b5b9ccc1461015d575b600080fd5b3480156100ad57600080fd5b506100b661027b565b6040516100c39190610786565b60405180910390f35b3480156100d857600080fd5b506100f360048036038101906100ee91906107d2565b610283565b6040516101009190610840565b60405180910390f35b34801561011557600080fd5b5061011e6102c0565b005b34801561012c57600080fd5b50610147600480360381019061014291906107d2565b6104c6565b6040516101549190610840565b60405180910390f35b34801561016957600080fd5b506101726104f9565b60405161017f9190610919565b60405180910390f35b34801561019457600080fd5b5061019d610587565b6040516101aa919061095c565b60405180910390f35b3480156101bf57600080fd5b506101c86105ab565b6040516101d59190610786565b60405180910390f35b3480156101ea57600080fd5b506101f36105b5565b6040516102009190610786565b60405180910390f35b34801561021557600080fd5b5061021e610609565b60405161022b9190610786565b60405180910390f35b61023c61060f565b005b34801561024a57600080fd5b50610265600480360381019061026091906107d2565b610687565b6040516102729190610840565b60405180910390f35b600047905090565b60006003600083815260200190815260200160002060009054906101000a900473ffffffffffffffffffffffffffffffffffffffff169050919050565b60008054906101000a900473ffffffffffffffffffffffffffffffffffffffff1673ffffffffffffffffffffffffffffffffffffffff163373ffffffffffffffffffffffffffffffffffffffff161461031857600080fd5b60006001805490506103286105b5565b61033291906109a6565b905060018181548110610348576103476109d7565b5b9060005260206000200160009054906101000a900473ffffffffffffffffffffffffffffffffffffffff1673ffffffffffffffffffffffffffffffffffffffff166108fc479081150290604051600060405180830381858888f193505050501580156103b8573d6000803e3d6000fd5b50600181815481106103cd576103cc6109d7565b5b9060005260206000200160009054906101000a900473ffffffffffffffffffffffffffffffffffffffff1660036000600254815260200190815260200160002060006101000a81548173ffffffffffffffffffffffffffffffffffffffff021916908373ffffffffffffffffffffffffffffffffffffffff1602179055506002600081548092919061045e90610a35565b9190505550600067ffffffffffffffff81111561047e5761047d610a7d565b5b6040519080825280602002602001820160405280156104ac5781602001602082028036833780820191505090505b50600190805190602001906104c29291906106c6565b5050565b60036020528060005260406000206000915054906101000a900473ffffffffffffffffffffffffffffffffffffffff1681565b6060600180548060200260200160405190810160405280929190818152602001828054801561057d57602002820191906000526020600020905b8160009054906101000a900473ffffffffffffffffffffffffffffffffffffffff1673ffffffffffffffffffffffffffffffffffffffff1681526020019060010190808311610533575b5050505050905090565b60008054906101000a900473ffffffffffffffffffffffffffffffffffffffff1681565b6000600254905090565b60008060009054906101000a900473ffffffffffffffffffffffffffffffffffffffff16426040516020016105eb929190610b15565b6040516020818303038152906040528051906020012060001c905090565b60025481565b662386f26fc10000341161062257600080fd5b6001339080600181540180825580915050600190039060005260206000200160009091909190916101000a81548173ffffffffffffffffffffffffffffffffffffffff021916908373ffffffffffffffffffffffffffffffffffffffff160217905550565b6001818154811061069757600080fd5b906000526020600020016000915054906101000a900473ffffffffffffffffffffffffffffffffffffffff1681565b82805482825590600052602060002090810192821561073f579160200282015b8281111561073e5782518260006101000a81548173ffffffffffffffffffffffffffffffffffffffff021916908373ffffffffffffffffffffffffffffffffffffffff160217905550916020019190600101906106e6565b5b50905061074c9190610750565b5090565b5b80821115610769576000816000905550600101610751565b5090565b6000819050919050565b6107808161076d565b82525050565b600060208201905061079b6000830184610777565b92915050565b600080fd5b6107af8161076d565b81146107ba57600080fd5b50565b6000813590506107cc816107a6565b92915050565b6000602082840312156107e8576107e76107a1565b5b60006107f6848285016107bd565b91505092915050565b600073ffffffffffffffffffffffffffffffffffffffff82169050919050565b600061082a826107ff565b9050919050565b61083a8161081f565b82525050565b60006020820190506108556000830184610831565b92915050565b600081519050919050565b600082825260208201905092915050565b6000819050602082019050919050565b6108908161081f565b82525050565b60006108a28383610887565b60208301905092915050565b6000602082019050919050565b60006108c68261085b565b6108d08185610866565b93506108db83610877565b8060005b8381101561090c5781516108f38882610896565b97506108fe836108ae565b9250506001810190506108df565b5085935050505092915050565b6000602082019050818103600083015261093381846108bb565b905092915050565b6000610946826107ff565b9050919050565b6109568161093b565b82525050565b6000602082019050610971600083018461094d565b92915050565b7f4e487b7100000000000000000000000000000000000000000000000000000000600052601260045260246000fd5b60006109b18261076d565b91506109bc8361076d565b9250826109cc576109cb610977565b5b828206905092915050565b7f4e487b7100000000000000000000000000000000000000000000000000000000600052603260045260246000fd5b7f4e487b7100000000000000000000000000000000000000000000000000000000600052601160045260246000fd5b6000610a408261076d565b91507fffffffffffffffffffffffffffffffffffffffffffffffffffffffffffffffff8203610a7257610a71610a06565b5b600182019050919050565b7f4e487b7100000000000000000000000000000000000000000000000000000000600052604160045260246000fd5b60008160601b9050919050565b6000610ac482610aac565b9050919050565b6000610ad682610ab9565b9050919050565b610aee610ae98261093b565b610acb565b82525050565b6000819050919050565b610b0f610b0a8261076d565b610af4565b82525050565b6000610b218285610add565b601482019150610b318284610afe565b602082019150819050939250505056fea264697066735822122025d6f55c2e26b770865ce9e84bebfe57203a26ea1b3688238b297cf0c20f08bf64736f6c634300080f0033",
  "immutableReferences": {},
  "source": "// SPDX-License-Identifier: MIT\r\n\r\npragma solidity ^0.8.15;\r\n\r\ncontract Lottery {\r\n    address public owner;\r\n    address payable[] public players;\r\n    uint public lotteryId;\r\n    mapping (uint => address payable) public lotteryHistory;\r\n\r\n    constructor() {\r\n        owner = msg.sender;\r\n        lotteryId = 1;\r\n    }\r\n\r\n    function getWinnerByLottery(uint lottery) public view returns (address payable) {\r\n        return lotteryHistory[lottery];\r\n    }\r\n\r\n    function getBalance() public view returns (uint) {\r\n        return address(this).balance;\r\n    }\r\n\r\n    function getPlayers() public view returns (address payable[] memory) {\r\n        return players;\r\n    }\r\n\r\n    function enter() public payable {\r\n        require(msg.value > .01 ether);\r\n\r\n        // address of player entering lottery\r\n        players.push(payable(msg.sender));\r\n    }\r\n\r\n    function getRandomNumber() public view returns (uint) {\r\n        return uint(keccak256(abi.encodePacked(owner, block.timestamp)));\r\n    }\r\n\r\n    function getLotteryId() public view returns(uint) {\r\n        return lotteryId;\r\n    }\r\n\r\n    function pickWinner() public onlyowner {\r\n        uint index = getRandomNumber() % players.length;\r\n        players[index].transfer(address(this).balance);\r\n\r\n        lotteryHistory[lotteryId] = players[index];\r\n        lotteryId++;\r\n\r\n\r\n        // reset the state of the contract\r\n        players = new address payable[](0);\r\n    }\r\n\r\n    modifier onlyowner() {\r\n      require(msg.sender == owner);\r\n      _;\r\n    }\r\n}\r\n",
  "sourcePath": "c:\\Users\\kevvv\\github\\bts-lottery-dapp\\backend\\contracts\\Lottery.sol",
  "compiler": {
    "name": "solc",
    "version": "0.8.15+commit.e14f2714.Emscripten.clang"
  },
  "schemaVersion": "3.4.8",
  "updatedAt": "2022-08-15T19:41:38.738Z",
  "networkType": "ethereum",
  "devdoc": {
    "kind": "dev",
    "methods": {},
    "version": 1
  },
  "userdoc": {
    "kind": "user",
    "methods": {},
    "version": 1
  }
}