{
  "contractName": "Lottery",
  "abi": [
    {
      "inputs": [],
      "stateMutability": "nonpayable",
      "type": "constructor"
    },
    {
      "inputs": [],
      "name": "lotteryId",
      "outputs": [
        {
          "internalType": "uint256",
          "name": "",
          "type": "uint256"
        }
      ],
      "stateMutability": "view",
      "type": "function",
      "constant": true
    },
    {
      "inputs": [],
      "name": "owner",
      "outputs": [
        {
          "internalType": "address",
          "name": "",
          "type": "address"
        }
      ],
      "stateMutability": "view",
      "type": "function",
      "constant": true
    },
    {
      "inputs": [
        {
          "internalType": "uint256",
          "name": "",
          "type": "uint256"
        }
      ],
      "name": "players",
      "outputs": [
        {
          "internalType": "address payable",
          "name": "",
          "type": "address"
        }
      ],
      "stateMutability": "view",
      "type": "function",
      "constant": true
    },
    {
      "inputs": [
        {
          "internalType": "uint256",
          "name": "",
          "type": "uint256"
        }
      ],
      "name": "winners",
      "outputs": [
        {
          "internalType": "address",
          "name": "",
          "type": "address"
        }
      ],
      "stateMutability": "view",
      "type": "function",
      "constant": true
    },
    {
      "inputs": [],
      "name": "enter",
      "outputs": [],
      "stateMutability": "payable",
      "type": "function",
      "payable": true
    },
    {
      "inputs": [],
      "name": "getPlayers",
      "outputs": [
        {
          "internalType": "address payable[]",
          "name": "",
          "type": "address[]"
        }
      ],
      "stateMutability": "view",
      "type": "function",
      "constant": true
    },
    {
      "inputs": [],
      "name": "getBalance",
      "outputs": [
        {
          "internalType": "uint256",
          "name": "",
          "type": "uint256"
        }
      ],
      "stateMutability": "view",
      "type": "function",
      "constant": true
    },
    {
      "inputs": [],
      "name": "getLotteryId",
      "outputs": [
        {
          "internalType": "uint256",
          "name": "",
          "type": "uint256"
        }
      ],
      "stateMutability": "view",
      "type": "function",
      "constant": true
    },
    {
      "inputs": [],
      "name": "getRandomNumber",
      "outputs": [
        {
          "internalType": "uint256",
          "name": "",
          "type": "uint256"
        }
      ],
      "stateMutability": "view",
      "type": "function",
      "constant": true
    },
    {
      "inputs": [],
      "name": "pickWinner",
      "outputs": [],
      "stateMutability": "nonpayable",
      "type": "function"
    },
    {
      "inputs": [],
      "name": "getWinner",
      "outputs": [
        {
          "internalType": "address[]",
          "name": "",
          "type": "address[]"
        }
      ],
      "stateMutability": "view",
      "type": "function",
      "constant": true
    }
  ],
  "bytecode": "0x608060405234801561001057600080fd5b50336000806101000a81548173ffffffffffffffffffffffffffffffffffffffff021916908373ffffffffffffffffffffffffffffffffffffffff1602179055506000600381905550610cb3806100686000396000f3fe60806040526004361061009c5760003560e01c8063900aafaf11610064578063900aafaf14610164578063a2fb11751461018f578063dbdff2c1146101cc578063e580f47b146101f7578063e97dcb6214610222578063f71d96cb1461022c5761009c565b806312065fe0146100a15780635d495aea146100cc5780638b5b9ccc146100e35780638da5cb5b1461010e5780638e7ea5b214610139575b600080fd5b3480156100ad57600080fd5b506100b6610269565b6040516100c391906107e2565b60405180910390f35b3480156100d857600080fd5b506100e1610271565b005b3480156100ef57600080fd5b506100f8610486565b60405161010591906108ed565b60405180910390f35b34801561011a57600080fd5b50610123610514565b6040516101309190610930565b60405180910390f35b34801561014557600080fd5b5061014e610538565b60405161015b9190610a09565b60405180910390f35b34801561017057600080fd5b506101796105c6565b60405161018691906107e2565b60405180910390f35b34801561019b57600080fd5b506101b660048036038101906101b19190610a5c565b6105d0565b6040516101c39190610930565b60405180910390f35b3480156101d857600080fd5b506101e161060f565b6040516101ee91906107e2565b60405180910390f35b34801561020357600080fd5b5061020c610663565b60405161021991906107e2565b60405180910390f35b61022a610669565b005b34801561023857600080fd5b50610253600480360381019061024e9190610a5c565b6106e3565b6040516102609190610a98565b60405180910390f35b600047905090565b60008054906101000a900473ffffffffffffffffffffffffffffffffffffffff1673ffffffffffffffffffffffffffffffffffffffff163373ffffffffffffffffffffffffffffffffffffffff16146102c957600080fd5b60006001805490506102d961060f565b6102e39190610ae2565b9050600181815481106102f9576102f8610b13565b5b9060005260206000200160009054906101000a900473ffffffffffffffffffffffffffffffffffffffff1673ffffffffffffffffffffffffffffffffffffffff166108fc479081150290604051600060405180830381858888f19350505050158015610369573d6000803e3d6000fd5b506002600182815481106103805761037f610b13565b5b9060005260206000200160009054906101000a900473ffffffffffffffffffffffffffffffffffffffff169080600181540180825580915050600190039060005260206000200160009091909190916101000a81548173ffffffffffffffffffffffffffffffffffffffff021916908373ffffffffffffffffffffffffffffffffffffffff1602179055506003600081548092919061041e90610b71565b9190505550600067ffffffffffffffff81111561043e5761043d610bb9565b5b60405190808252806020026020018201604052801561046c5781602001602082028036833780820191505090505b5060019080519060200190610482929190610722565b5050565b6060600180548060200260200160405190810160405280929190818152602001828054801561050a57602002820191906000526020600020905b8160009054906101000a900473ffffffffffffffffffffffffffffffffffffffff1673ffffffffffffffffffffffffffffffffffffffff16815260200190600101908083116104c0575b5050505050905090565b60008054906101000a900473ffffffffffffffffffffffffffffffffffffffff1681565b606060028054806020026020016040519081016040528092919081815260200182805480156105bc57602002820191906000526020600020905b8160009054906101000a900473ffffffffffffffffffffffffffffffffffffffff1673ffffffffffffffffffffffffffffffffffffffff1681526020019060010190808311610572575b5050505050905090565b6000600354905090565b600281815481106105e057600080fd5b906000526020600020016000915054906101000a900473ffffffffffffffffffffffffffffffffffffffff1681565b60008060009054906101000a900473ffffffffffffffffffffffffffffffffffffffff1642604051602001610645929190610c51565b6040516020818303038152906040528051906020012060001c905090565b60035481565b67016345785d8a000034101561067e57600080fd5b6001339080600181540180825580915050600190039060005260206000200160009091909190916101000a81548173ffffffffffffffffffffffffffffffffffffffff021916908373ffffffffffffffffffffffffffffffffffffffff160217905550565b600181815481106106f357600080fd5b906000526020600020016000915054906101000a900473ffffffffffffffffffffffffffffffffffffffff1681565b82805482825590600052602060002090810192821561079b579160200282015b8281111561079a5782518260006101000a81548173ffffffffffffffffffffffffffffffffffffffff021916908373ffffffffffffffffffffffffffffffffffffffff16021790555091602001919060010190610742565b5b5090506107a891906107ac565b5090565b5b808211156107c55760008160009055506001016107ad565b5090565b6000819050919050565b6107dc816107c9565b82525050565b60006020820190506107f760008301846107d3565b92915050565b600081519050919050565b600082825260208201905092915050565b6000819050602082019050919050565b600073ffffffffffffffffffffffffffffffffffffffff82169050919050565b600061085482610829565b9050919050565b61086481610849565b82525050565b6000610876838361085b565b60208301905092915050565b6000602082019050919050565b600061089a826107fd565b6108a48185610808565b93506108af83610819565b8060005b838110156108e05781516108c7888261086a565b97506108d283610882565b9250506001810190506108b3565b5085935050505092915050565b60006020820190508181036000830152610907818461088f565b905092915050565b600061091a82610829565b9050919050565b61092a8161090f565b82525050565b60006020820190506109456000830184610921565b92915050565b600081519050919050565b600082825260208201905092915050565b6000819050602082019050919050565b6109808161090f565b82525050565b60006109928383610977565b60208301905092915050565b6000602082019050919050565b60006109b68261094b565b6109c08185610956565b93506109cb83610967565b8060005b838110156109fc5781516109e38882610986565b97506109ee8361099e565b9250506001810190506109cf565b5085935050505092915050565b60006020820190508181036000830152610a2381846109ab565b905092915050565b600080fd5b610a39816107c9565b8114610a4457600080fd5b50565b600081359050610a5681610a30565b92915050565b600060208284031215610a7257610a71610a2b565b5b6000610a8084828501610a47565b91505092915050565b610a9281610849565b82525050565b6000602082019050610aad6000830184610a89565b92915050565b7f4e487b7100000000000000000000000000000000000000000000000000000000600052601260045260246000fd5b6000610aed826107c9565b9150610af8836107c9565b925082610b0857610b07610ab3565b5b828206905092915050565b7f4e487b7100000000000000000000000000000000000000000000000000000000600052603260045260246000fd5b7f4e487b7100000000000000000000000000000000000000000000000000000000600052601160045260246000fd5b6000610b7c826107c9565b91507fffffffffffffffffffffffffffffffffffffffffffffffffffffffffffffffff8203610bae57610bad610b42565b5b600182019050919050565b7f4e487b7100000000000000000000000000000000000000000000000000000000600052604160045260246000fd5b60008160601b9050919050565b6000610c0082610be8565b9050919050565b6000610c1282610bf5565b9050919050565b610c2a610c258261090f565b610c07565b82525050565b6000819050919050565b610c4b610c46826107c9565b610c30565b82525050565b6000610c5d8285610c19565b601482019150610c6d8284610c3a565b602082019150819050939250505056fea2646970667358221220766185a82e23074e193771a356504cbd2c98f5ddebf9c2bd803e30f65a5365e364736f6c634300080f0033",
  "immutableReferences": {},
  "source": "// SPDX-License-Identifier: MIT\r\n\r\npragma solidity ^0.8.15;\r\n\r\ncontract Lottery{\r\n\r\n    address public owner;\r\n    address payable[] public players;\r\n    address[] public winners;\r\n    uint public lotteryId;\r\n\r\n    constructor(){\r\n        owner = msg.sender;\r\n        lotteryId = 0;\r\n    }\r\n\r\n    function enter() public payable{\r\n        require(msg.value >= 0.1 ether);\r\n        players.push(payable(msg.sender));\r\n    }\r\n\r\n    function getPlayers() public view returns(address payable[] memory){\r\n        return players;\r\n    }\r\n\r\n    //get balance\r\n\r\n    function getBalance() public view returns(uint){\r\n        return address(this).balance;\r\n    }\r\n\r\n    function getLotteryId() public view returns(uint){\r\n        return lotteryId;\r\n    }\r\n\r\n    //get random number \r\n    function getRandomNumber() public view returns(uint){\r\n        return uint(keccak256(abi.encodePacked(owner,block.timestamp)));\r\n    }\r\n\r\n    //pick winner\r\n\r\n    function pickWinner() public {\r\n        require(msg.sender == owner);\r\n        uint randomIndex = getRandomNumber() % players.length;\r\n        players[randomIndex].transfer(address(this).balance);\r\n        winners.push(players[randomIndex]);\r\n        lotteryId++;\r\n\r\n        // clear the player array\r\n\r\n        players = new address payable[](0);\r\n    }\r\n\r\n    function getWinner() public view returns(address[] memory){\r\n        return winners;\r\n    }\r\n\r\n\r\n\r\n}",
  "sourcePath": "c:\\Users\\91884\\Documents\\GitHub\\desktop-tutorial\\lottery-dapp-youtube\\backend\\contracts\\Lottery.sol",
  "compiler": {
    "name": "solc",
    "version": "0.8.15+commit.e14f2714.Emscripten.clang"
  },
  "schemaVersion": "3.4.11",
  "updatedAt": "2022-11-26T13:34:51.860Z",
  "networkType": "ethereum",
  "devdoc": {
    "kind": "dev",
    "methods": {},
    "version": 1
  },
  "userdoc": {
    "kind": "user",
    "methods": {},
    "version": 1
  }
}