{
  "contractName": "Lottery",
  "abi": [
    {
      "inputs": [],
      "stateMutability": "nonpayable",
      "type": "constructor"
    },
    {
      "inputs": [
        {
          "internalType": "uint256",
          "name": "",
          "type": "uint256"
        }
      ],
      "name": "lotteryHistory",
      "outputs": [
        {
          "internalType": "address payable",
          "name": "",
          "type": "address"
        }
      ],
      "stateMutability": "view",
      "type": "function",
      "constant": true
    },
    {
      "inputs": [],
      "name": "lotteryId",
      "outputs": [
        {
          "internalType": "uint256",
          "name": "",
          "type": "uint256"
        }
      ],
      "stateMutability": "view",
      "type": "function",
      "constant": true
    },
    {
      "inputs": [],
      "name": "owner",
      "outputs": [
        {
          "internalType": "address",
          "name": "",
          "type": "address"
        }
      ],
      "stateMutability": "view",
      "type": "function",
      "constant": true
    },
    {
      "inputs": [
        {
          "internalType": "uint256",
          "name": "",
          "type": "uint256"
        }
      ],
      "name": "players",
      "outputs": [
        {
          "internalType": "address payable",
          "name": "",
          "type": "address"
        }
      ],
      "stateMutability": "view",
      "type": "function",
      "constant": true
    },
    {
      "inputs": [],
      "name": "winnerCount",
      "outputs": [
        {
          "internalType": "uint256",
          "name": "",
          "type": "uint256"
        }
      ],
      "stateMutability": "view",
      "type": "function",
      "constant": true
    },
    {
      "inputs": [],
      "name": "getWinners",
      "outputs": [
        {
          "internalType": "address payable[]",
          "name": "",
          "type": "address[]"
        }
      ],
      "stateMutability": "view",
      "type": "function",
      "constant": true
    },
    {
      "inputs": [],
      "name": "getBalance",
      "outputs": [
        {
          "internalType": "uint256",
          "name": "",
          "type": "uint256"
        }
      ],
      "stateMutability": "view",
      "type": "function",
      "constant": true
    },
    {
      "inputs": [],
      "name": "getPlayers",
      "outputs": [
        {
          "internalType": "address payable[]",
          "name": "",
          "type": "address[]"
        }
      ],
      "stateMutability": "view",
      "type": "function",
      "constant": true
    },
    {
      "inputs": [],
      "name": "enter",
      "outputs": [],
      "stateMutability": "payable",
      "type": "function",
      "payable": true
    },
    {
      "inputs": [],
      "name": "getRandomNumber",
      "outputs": [
        {
          "internalType": "uint256",
          "name": "",
          "type": "uint256"
        }
      ],
      "stateMutability": "view",
      "type": "function",
      "constant": true
    },
    {
      "inputs": [],
      "name": "getLotteryId",
      "outputs": [
        {
          "internalType": "uint256",
          "name": "",
          "type": "uint256"
        }
      ],
      "stateMutability": "view",
      "type": "function",
      "constant": true
    },
    {
      "inputs": [],
      "name": "pickWinner",
      "outputs": [],
      "stateMutability": "nonpayable",
      "type": "function"
    }
  ],
  "bytecode": "0x608060405234801561001057600080fd5b50336000806101000a81548173ffffffffffffffffffffffffffffffffffffffff021916908373ffffffffffffffffffffffffffffffffffffffff1602179055506000600281905550610c77806100686000396000f3fe6080604052600436106100a75760003560e01c8063caa02e0811610064578063caa02e08146101ac578063dbdff2c1146101d7578063df15c37e14610202578063e580f47b1461022d578063e97dcb6214610258578063f71d96cb14610262576100a7565b806312065fe0146100ac5780635d495aea146100d75780636d6fe230146100ee5780638b5b9ccc1461012b5780638da5cb5b14610156578063900aafaf14610181575b600080fd5b3480156100b857600080fd5b506100c161029f565b6040516100ce9190610886565b60405180910390f35b3480156100e357600080fd5b506100ec6102a7565b005b3480156100fa57600080fd5b50610115600480360381019061011091906108d2565b6104c5565b6040516101229190610940565b60405180910390f35b34801561013757600080fd5b506101406104f8565b60405161014d9190610a19565b60405180910390f35b34801561016257600080fd5b5061016b610586565b6040516101789190610a5c565b60405180910390f35b34801561018d57600080fd5b506101966105aa565b6040516101a39190610886565b60405180910390f35b3480156101b857600080fd5b506101c16105b4565b6040516101ce9190610886565b60405180910390f35b3480156101e357600080fd5b506101ec6105ba565b6040516101f99190610886565b60405180910390f35b34801561020e57600080fd5b5061021761060e565b6040516102249190610a19565b60405180910390f35b34801561023957600080fd5b50610242610708565b60405161024f9190610886565b60405180910390f35b61026061070e565b005b34801561026e57600080fd5b50610289600480360381019061028491906108d2565b610787565b6040516102969190610940565b60405180910390f35b600047905090565b60008054906101000a900473ffffffffffffffffffffffffffffffffffffffff1673ffffffffffffffffffffffffffffffffffffffff163373ffffffffffffffffffffffffffffffffffffffff16146102ff57600080fd5b600060018054905061030f6105ba565b6103199190610aa6565b90506001818154811061032f5761032e610ad7565b5b9060005260206000200160009054906101000a900473ffffffffffffffffffffffffffffffffffffffff1673ffffffffffffffffffffffffffffffffffffffff166108fc479081150290604051600060405180830381858888f1935050505015801561039f573d6000803e3d6000fd5b50600181815481106103b4576103b3610ad7565b5b9060005260206000200160009054906101000a900473ffffffffffffffffffffffffffffffffffffffff1660046000600254815260200190815260200160002060006101000a81548173ffffffffffffffffffffffffffffffffffffffff021916908373ffffffffffffffffffffffffffffffffffffffff1602179055506002600081548092919061044590610b35565b91905055506003600081548092919061045d90610b35565b9190505550600067ffffffffffffffff81111561047d5761047c610b7d565b5b6040519080825280602002602001820160405280156104ab5781602001602082028036833780820191505090505b50600190805190602001906104c19291906107c6565b5050565b60046020528060005260406000206000915054906101000a900473ffffffffffffffffffffffffffffffffffffffff1681565b6060600180548060200260200160405190810160405280929190818152602001828054801561057c57602002820191906000526020600020905b8160009054906101000a900473ffffffffffffffffffffffffffffffffffffffff1673ffffffffffffffffffffffffffffffffffffffff1681526020019060010190808311610532575b5050505050905090565b60008054906101000a900473ffffffffffffffffffffffffffffffffffffffff1681565b6000600254905090565b60035481565b60008060009054906101000a900473ffffffffffffffffffffffffffffffffffffffff16426040516020016105f0929190610c15565b6040516020818303038152906040528051906020012060001c905090565b6060600060035467ffffffffffffffff81111561062e5761062d610b7d565b5b60405190808252806020026020018201604052801561065c5781602001602082028036833780820191505090505b50905060005b600354811015610700576004600082815260200190815260200160002060009054906101000a900473ffffffffffffffffffffffffffffffffffffffff168282815181106106b3576106b2610ad7565b5b602002602001019073ffffffffffffffffffffffffffffffffffffffff16908173ffffffffffffffffffffffffffffffffffffffff168152505080806106f890610b35565b915050610662565b508091505090565b60025481565b662386f26fc1000034101561072257600080fd5b6001339080600181540180825580915050600190039060005260206000200160009091909190916101000a81548173ffffffffffffffffffffffffffffffffffffffff021916908373ffffffffffffffffffffffffffffffffffffffff160217905550565b6001818154811061079757600080fd5b906000526020600020016000915054906101000a900473ffffffffffffffffffffffffffffffffffffffff1681565b82805482825590600052602060002090810192821561083f579160200282015b8281111561083e5782518260006101000a81548173ffffffffffffffffffffffffffffffffffffffff021916908373ffffffffffffffffffffffffffffffffffffffff160217905550916020019190600101906107e6565b5b50905061084c9190610850565b5090565b5b80821115610869576000816000905550600101610851565b5090565b6000819050919050565b6108808161086d565b82525050565b600060208201905061089b6000830184610877565b92915050565b600080fd5b6108af8161086d565b81146108ba57600080fd5b50565b6000813590506108cc816108a6565b92915050565b6000602082840312156108e8576108e76108a1565b5b60006108f6848285016108bd565b91505092915050565b600073ffffffffffffffffffffffffffffffffffffffff82169050919050565b600061092a826108ff565b9050919050565b61093a8161091f565b82525050565b60006020820190506109556000830184610931565b92915050565b600081519050919050565b600082825260208201905092915050565b6000819050602082019050919050565b6109908161091f565b82525050565b60006109a28383610987565b60208301905092915050565b6000602082019050919050565b60006109c68261095b565b6109d08185610966565b93506109db83610977565b8060005b83811015610a0c5781516109f38882610996565b97506109fe836109ae565b9250506001810190506109df565b5085935050505092915050565b60006020820190508181036000830152610a3381846109bb565b905092915050565b6000610a46826108ff565b9050919050565b610a5681610a3b565b82525050565b6000602082019050610a716000830184610a4d565b92915050565b7f4e487b7100000000000000000000000000000000000000000000000000000000600052601260045260246000fd5b6000610ab18261086d565b9150610abc8361086d565b925082610acc57610acb610a77565b5b828206905092915050565b7f4e487b7100000000000000000000000000000000000000000000000000000000600052603260045260246000fd5b7f4e487b7100000000000000000000000000000000000000000000000000000000600052601160045260246000fd5b6000610b408261086d565b91507fffffffffffffffffffffffffffffffffffffffffffffffffffffffffffffffff8203610b7257610b71610b06565b5b600182019050919050565b7f4e487b7100000000000000000000000000000000000000000000000000000000600052604160045260246000fd5b60008160601b9050919050565b6000610bc482610bac565b9050919050565b6000610bd682610bb9565b9050919050565b610bee610be982610a3b565b610bcb565b82525050565b6000819050919050565b610c0f610c0a8261086d565b610bf4565b82525050565b6000610c218285610bdd565b601482019150610c318284610bfe565b602082019150819050939250505056fea26469706673582212208974532771577578206ec7942457c08e602646e5117b33eb3ac88fb8130952bf64736f6c634300080f0033",
  "immutableReferences": {},
  "source": "// SPDX-License-Identifier: MIT\n\npragma solidity ^0.8.15;\n\ncontract Lottery {\n    address public owner;\n    address payable[] public players;\n\n    uint public lotteryId;\n    uint public winnerCount;\n    mapping (uint => address payable) public lotteryHistory;\n\n\n    constructor() {\n        owner = msg.sender;\n        lotteryId = 0;\n    }\n\n    function getWinners() public view returns (address payable[] memory){\n        address payable[] memory ret = new address payable[](winnerCount);\n        for(uint i = 0; i < winnerCount; i++){\n            ret[i] = lotteryHistory[i];\n        }\n        return ret;\n    }\n\n    function getBalance() public view returns (uint) {\n        return address(this).balance;\n    }\n\n    function getPlayers() public view returns (address payable[] memory) {\n        return players;\n    }\n\n    function enter() public payable {\n        require(msg.value >= .01 ether);\n\n        // address of player entering lottery\n        players.push(payable(msg.sender));\n    }\n\n    function getRandomNumber() public view returns (uint) {\n        return uint(keccak256(abi.encodePacked(owner, block.timestamp)));\n    }\n\n    function getLotteryId() public view returns(uint) {\n        return lotteryId;\n    }\n\n\n    function pickWinner() public onlyOwner {\n        uint randomIndex = getRandomNumber() % players.length;\n        players[randomIndex].transfer(address(this).balance);\n        lotteryHistory[lotteryId] = players[randomIndex];\n        lotteryId++;\n        winnerCount++;\n\n        // Clear the players array. ['player1', 'player2']  []\n        players = new address payable[](0);\n    }\n\n    modifier onlyOwner() {\n      require(msg.sender == owner);\n      _;\n    }\n}",
  "sourcePath": "/Users/kevin/github/bts-lotterydapp-infura/backend/contracts/Lottery.sol",
  "compiler": {
    "name": "solc",
    "version": "0.8.15+commit.e14f2714.Emscripten.clang"
  },
  "schemaVersion": "3.4.4",
  "updatedAt": "2022-08-24T16:26:02.588Z",
  "networkType": "ethereum",
  "devdoc": {
    "kind": "dev",
    "methods": {},
    "version": 1
  },
  "userdoc": {
    "kind": "user",
    "methods": {},
    "version": 1
  }
}